:100000000C9446000C9465000C9465000C946500FB
:100010000C9465000C9465000C9465000C946500CC
:100020000C9465000C9465000C9465000C946500BC
:100030000C9465000C94D9010C9465000C94650037
:100040000C9465000C9465000C9465000C9465009C
:100050000C9465000C9465000C9465000C9465008C
:100060000C9465000C9465000C9465000C9465007C
:100070000C9465000C9465000C9465000C9465006C
:100080000C9465000C9465000C94650011241FBE4F
:10009000CFEFD0E4DEBFCDBF11E0A0E0B1E0E4EDF2
:1000A000F7E000E00BBF02C007900D92A231B1074C
:1000B000D9F721E0A2E1B1E001C01D92AD31B20754
:1000C000E1F70E947F030C94E8030C940000CF93A7
:1000D000DF93CDB7DEB781E00E948E000000DF9194
:1000E000CF910895CF93DF93CDB7DEB784E690E04C
:1000F0000E94320188E30E948E0086E00E948E00FA
:100100008FE00E948E0081E00E948E008AE090E0E5
:100110000E9432010000DF91CF910895CF93DF93C9
:100120001F92CDB7DEB789838BE290E02BE230E0FF
:10013000F90120812F7BFC01208388E290E0298156
:10014000FC0120838BE290E02BE230E0F90120817A
:100150002068FC01208300008BE290E02BE230E07D
:10016000F90120812F77FC01208382E090E00E943A
:10017000320100000F90DF91CF910895CF93DF936C
:100180001F92CDB7DEB789838BE290E02BE230E09F
:10019000F90120812064FC01208388E290E029811C
:1001A000FC0120838BE290E02BE230E0F90120811A
:1001B0002068FC01208300008BE290E02BE230E01D
:1001C000F90120812F77FC01208381E090E00E94DB
:1001D000320100000F90DF91CF910895CF93DF930C
:1001E00000D000D0CDB7DEB78A837C836B830E94BA
:1001F00067008A81898311C0898191E0980F998372
:100200000E941B018B819C819C012F5F3F4F3C838F
:100210002B83FC0180810E94BE008B819C81FC01AC
:100220008081882349F700000F900F900F900F9066
:10023000DF91CF910895CF93DF931F92CDB7DEB7B3
:1002400089838981813128F4898181580E948E00B7
:1002500004C0898181550E948E0000000F90DF91BB
:10026000CF910895CF93DF9300D000D000D0CDB7C9
:10027000DEB79E838D831A82198213C01C821B8273
:1002800006C000008B819C8101969C838B838B81AF
:100290009C8187309340ACF389819A8101969A833F
:1002A000898329813A818D819E812817390734F30A
:1002B000000026960FB6F894DEBF0FBECDBFDF91CB
:1002C000CF910895CF93DF9300D01F92CDB7DEB7C3
:1002D00089837B836A8389818A3031F48A819B8117
:1002E000BC018DE00E94620180EC90E0FC01808105
:1002F000882F90E080729927892BB1F386EC90E0EB
:100300002981FC01208380E090E00F900F900F90F6
:10031000DF91CF910895CF93DF93CDB7DEB781E81A
:1003200090E02BE0FC01208388E890E02DE730E0AE
:10033000FC01318320838FE690E022E0FC012083E2
:1003400084E890E0FC011182108280910E0190916E
:100350000F01A0911001B0911101809313019093AE
:100360001401A0931501B09316018FE590E02FE5DD
:1003700030E0F90120812068FC0120830000DF913A
:10038000CF910895CF93DF93CDB7DEB781E890E0AA
:10039000FC0110820000DF91CF910895CF93DF938D
:1003A000CDB7DEB781E0809312010000DF91CF91DD
:1003B00008951F920F9200905F000F9211240090F9
:1003C0005B000F922F933F934F935F936F937F93B5
:1003D0008F939F93AF93BF93EF93FF93CF93DF934D
:1003E000CDB7DEB78091130190911401A091150152
:1003F000B09116010197A109B1098093130190935F
:100400001401A0931501B0931601809113019091EE
:100410001401A0911501B0911601892B8A2B8B2B09
:1004200091F40E94CE0180910E0190910F01A09154
:100430001001B09111018093130190931401A093C6
:100440001501B09316010000DF91CF91FF91EF915C
:10045000BF91AF919F918F917F916F915F914F91DC
:100460003F912F910F9000925B000F9000925F00E0
:100470000F901F901895CF93DF9300D000D0CDB789
:10048000DEB769837A838B839C8389819A81AB8170
:10049000BC8180930E0190930F01A0931001B09343
:1004A000110180910E0190910F01A0911001B09166
:1004B00011018093130190931401A0931501B0933F
:1004C000160100000F900F900F900F90DF91CF91C9
:1004D0000895CF93DF93CDB7DEB780911901909146
:1004E0001A0182309105C1F18330910528F40097FB
:1004F00059F0019781F084C08330910509F44DC013
:10050000049709F460C07CC084E090E090931A01E5
:10051000809319017AC080911B01882359F0809142
:100520001C01882339F083E090E090931A018093B6
:1005300019016BC080911C01882339F484E090E09C
:1005400090931A018093190160C081E090E090932C
:100550001A018093190159C080911C01882359F018
:1005600080911B01882339F083E090E090931A0179
:10057000809319014AC080911B01882339F484E0DB
:1005800090E090931A01809319013FC082E090E0BF
:1005900090931A018093190138C080911C0188231F
:1005A00059F480911B01882339F484E090E0909302
:1005B0001A018093190129C083E090E090931A01F9
:1005C0008093190122C080911C01882339F081E0B9
:1005D00090E090931A018093190117C080911B013C
:1005E000882339F082E090E090931A0180931901FA
:1005F0000CC084E090E090931A018093190105C02B
:1006000010921A0110921901000080911901909125
:100610001A0182309105D1F18330910530F40097B1
:1006200009F464C0019749F066C08330910509F46C
:1006300055C0049709F457C05EC080911801882303
:1006400071F480911701893050F4809117018F5F08
:1006500080931701809118018F5F8093180180911A
:1006600018018F5F80931801809118018A3009F07A
:100670003FC0809117018930D8F5809117018F5FB5
:100680008093170181E08093180132C08091180196
:10069000882371F480911701882351F0809117010C
:1006A000815080931701809118018F5F809318010A
:1006B000809118018F5F80931801809118018A3012
:1006C000C9F4809117018823A9F080911701815006
:1006D0008093170181E0809318010CC010921701DC
:1006E0001092180108C01092180105C0000003C044
:1006F000000001C000000000DF91CF910895CF936A
:10070000DF93CDB7DEB781E290E0FC01108282E298
:1007100090E02FEFFC01208384E290E02FEFFC01BA
:10072000208385E290E0FC01108287E290E02FEFC9
:10073000FC01208388E290E0FC0110828AE290E0D4
:100740002FEFFC0120838BE290E0FC0110820E94DD
:1007500072000E94670064E670E080E090E00E9412
:100760003B020E948B0110921A0110921901109203
:10077000170181E00E941B0180E290E0FC01808172
:10078000882F90E08170992721E0892B09F020E0E3
:10079000822F80931C0180E290E0FC018081809593
:1007A000827080931B010E94690280911701805D15
:1007B0000E94BE000000809112018823E1F3109294
:1007C000120185E290E020911701FC012083D1CF36
:0407D000F894FFCFCB
:1007D40000000002000000006201000000000100AF
:0207E400000013
:00000001FF
